{
  "_format": "hh-sol-artifact-1",
  "contractName": "GaslessForwarder",
  "sourceName": "contracts/GaslessForwarder.sol",
  "abi": [
    {
      "inputs": [],
      "stateMutability": "nonpayable",
      "type": "constructor"
    },
    {
      "inputs": [],
      "name": "ECDSAInvalidSignature",
      "type": "error"
    },
    {
      "inputs": [
        {
          "internalType": "uint256",
          "name": "length",
          "type": "uint256"
        }
      ],
      "name": "ECDSAInvalidSignatureLength",
      "type": "error"
    },
    {
      "inputs": [
        {
          "internalType": "bytes32",
          "name": "s",
          "type": "bytes32"
        }
      ],
      "name": "ECDSAInvalidSignatureS",
      "type": "error"
    },
    {
      "anonymous": false,
      "inputs": [
        {
          "indexed": true,
          "internalType": "address",
          "name": "from",
          "type": "address"
        },
        {
          "indexed": true,
          "internalType": "address",
          "name": "to",
          "type": "address"
        },
        {
          "indexed": false,
          "internalType": "uint256",
          "name": "value",
          "type": "uint256"
        },
        {
          "indexed": false,
          "internalType": "bytes",
          "name": "data",
          "type": "bytes"
        }
      ],
      "name": "TransactionForwarded",
      "type": "event"
    },
    {
      "inputs": [
        {
          "internalType": "address",
          "name": "_relayer",
          "type": "address"
        }
      ],
      "name": "addRelayer",
      "outputs": [],
      "stateMutability": "nonpayable",
      "type": "function"
    },
    {
      "inputs": [
        {
          "components": [
            {
              "internalType": "address",
              "name": "from",
              "type": "address"
            },
            {
              "internalType": "address",
              "name": "to",
              "type": "address"
            },
            {
              "internalType": "uint256",
              "name": "value",
              "type": "uint256"
            },
            {
              "internalType": "uint256",
              "name": "nonce",
              "type": "uint256"
            },
            {
              "internalType": "bytes",
              "name": "data",
              "type": "bytes"
            }
          ],
          "internalType": "struct GaslessForwarder.ForwardRequest",
          "name": "req",
          "type": "tuple"
        },
        {
          "internalType": "bytes",
          "name": "signature",
          "type": "bytes"
        }
      ],
      "name": "executeTransaction",
      "outputs": [],
      "stateMutability": "nonpayable",
      "type": "function"
    },
    {
      "inputs": [
        {
          "internalType": "address",
          "name": "",
          "type": "address"
        }
      ],
      "name": "nonces",
      "outputs": [
        {
          "internalType": "uint256",
          "name": "",
          "type": "uint256"
        }
      ],
      "stateMutability": "view",
      "type": "function"
    },
    {
      "inputs": [],
      "name": "owner",
      "outputs": [
        {
          "internalType": "address",
          "name": "",
          "type": "address"
        }
      ],
      "stateMutability": "view",
      "type": "function"
    },
    {
      "inputs": [
        {
          "internalType": "address",
          "name": "",
          "type": "address"
        }
      ],
      "name": "relayers",
      "outputs": [
        {
          "internalType": "bool",
          "name": "",
          "type": "bool"
        }
      ],
      "stateMutability": "view",
      "type": "function"
    },
    {
      "inputs": [
        {
          "internalType": "address",
          "name": "_relayer",
          "type": "address"
        }
      ],
      "name": "removeRelayer",
      "outputs": [],
      "stateMutability": "nonpayable",
      "type": "function"
    }
  ],
  "bytecode": "0x608060405234801561001057600080fd5b50336000806101000a81548173ffffffffffffffffffffffffffffffffffffffff021916908373ffffffffffffffffffffffffffffffffffffffff160217905550611335806100606000396000f3fe608060405234801561001057600080fd5b50600436106100625760003560e01c80635300f8411461006757806360f0a5ac146100975780637ecebe00146100b3578063824f9dc5146100e35780638da5cb5b146100ff578063dd39f00d1461011d575b600080fd5b610081600480360381019061007c9190610b20565b610139565b60405161008e9190610b68565b60405180910390f35b6100b160048036038101906100ac9190610b20565b610159565b005b6100cd60048036038101906100c89190610b20565b610242565b6040516100da9190610b9c565b60405180910390f35b6100fd60048036038101906100f89190610c40565b61025a565b005b6101076106cc565b6040516101149190610ccb565b60405180910390f35b61013760048036038101906101329190610b20565b6106f0565b005b60016020528060005260406000206000915054906101000a900460ff1681565b60008054906101000a900473ffffffffffffffffffffffffffffffffffffffff1673ffffffffffffffffffffffffffffffffffffffff163373ffffffffffffffffffffffffffffffffffffffff16146101e7576040517f08c379a00000000000000000000000000000000000000000000000000000000081526004016101de90610d43565b60405180910390fd5b6000600160008373ffffffffffffffffffffffffffffffffffffffff1673ffffffffffffffffffffffffffffffffffffffff16815260200190815260200160002060006101000a81548160ff02191690831515021790555050565b60026020528060005260406000206000915090505481565b600160003373ffffffffffffffffffffffffffffffffffffffff1673ffffffffffffffffffffffffffffffffffffffff16815260200190815260200160002060009054906101000a900460ff166102e6576040517f08c379a00000000000000000000000000000000000000000000000000000000081526004016102dd90610daf565b60405180910390fd5b60008360000160208101906102fb9190610b20565b84602001602081019061030e9190610b20565b856040013586606001358780608001906103289190610dde565b60405160200161033d96959493929190610e9f565b6040516020818303038152906040528051906020012090506000816040516020016103689190610f7d565b60405160208183030381529060405280519060200120905060006103d08286868080601f016020809104026020016040519081016040528093929190818152602001838380828437600081840152601f19601f820116905080830192505050505050506107d8565b90508560000160208101906103e59190610b20565b73ffffffffffffffffffffffffffffffffffffffff168173ffffffffffffffffffffffffffffffffffffffff1614610452576040517f08c379a000000000000000000000000000000000000000000000000000000000815260040161044990610fef565b60405180910390fd5b85606001356002600088600001602081019061046e9190610b20565b73ffffffffffffffffffffffffffffffffffffffff1673ffffffffffffffffffffffffffffffffffffffff16815260200190815260200160002054146104e9576040517f08c379a00000000000000000000000000000000000000000000000000000000081526004016104e09061105b565b60405180910390fd5b600260008760000160208101906105009190610b20565b73ffffffffffffffffffffffffffffffffffffffff1673ffffffffffffffffffffffffffffffffffffffff168152602001908152602001600020600081548092919061054b906110aa565b919050555060008660200160208101906105659190610b20565b73ffffffffffffffffffffffffffffffffffffffff1687604001358880608001906105909190610dde565b60405161059e929190611122565b60006040518083038185875af1925050503d80600081146105db576040519150601f19603f3d011682016040523d82523d6000602084013e6105e0565b606091505b5050905080610624576040517f08c379a000000000000000000000000000000000000000000000000000000000815260040161061b90611187565b60405180910390fd5b8660200160208101906106379190610b20565b73ffffffffffffffffffffffffffffffffffffffff168760000160208101906106609190610b20565b73ffffffffffffffffffffffffffffffffffffffff167fabc57338c8c17e63d416364c3363d688a4c8cdf40927ba31eed5482d2bdf0ccf89604001358a80608001906106ac9190610dde565b6040516106bb939291906111a7565b60405180910390a350505050505050565b60008054906101000a900473ffffffffffffffffffffffffffffffffffffffff1681565b60008054906101000a900473ffffffffffffffffffffffffffffffffffffffff1673ffffffffffffffffffffffffffffffffffffffff163373ffffffffffffffffffffffffffffffffffffffff161461077e576040517f08c379a000000000000000000000000000000000000000000000000000000000815260040161077590611225565b60405180910390fd5b60018060008373ffffffffffffffffffffffffffffffffffffffff1673ffffffffffffffffffffffffffffffffffffffff16815260200190815260200160002060006101000a81548160ff02191690831515021790555050565b6000806000806107e88686610804565b9250925092506107f88282610860565b82935050505092915050565b600080600060418451036108495760008060006020870151925060408701519150606087015160001a905061083b888285856109c4565b955095509550505050610859565b60006002855160001b9250925092505b9250925092565b6000600381111561087457610873611245565b5b82600381111561088757610886611245565b5b03156109c057600160038111156108a1576108a0611245565b5b8260038111156108b4576108b3611245565b5b036108eb576040517ff645eedf00000000000000000000000000000000000000000000000000000000815260040160405180910390fd5b600260038111156108ff576108fe611245565b5b82600381111561091257610911611245565b5b03610957578060001c6040517ffce698f700000000000000000000000000000000000000000000000000000000815260040161094e9190610b9c565b60405180910390fd5b60038081111561096a57610969611245565b5b82600381111561097d5761097c611245565b5b036109bf57806040517fd78bce0c0000000000000000000000000000000000000000000000000000000081526004016109b69190611283565b60405180910390fd5b5b5050565b60008060007f7fffffffffffffffffffffffffffffff5d576e7357a4501ddfe92f46681b20a08460001c1115610a04576000600385925092509250610aae565b600060018888888860405160008152602001604052604051610a2994939291906112ba565b6020604051602081039080840390855afa158015610a4b573d6000803e3d6000fd5b505050602060405103519050600073ffffffffffffffffffffffffffffffffffffffff168173ffffffffffffffffffffffffffffffffffffffff1603610a9f57600060016000801b93509350935050610aae565b8060008060001b935093509350505b9450945094915050565b600080fd5b600080fd5b600073ffffffffffffffffffffffffffffffffffffffff82169050919050565b6000610aed82610ac2565b9050919050565b610afd81610ae2565b8114610b0857600080fd5b50565b600081359050610b1a81610af4565b92915050565b600060208284031215610b3657610b35610ab8565b5b6000610b4484828501610b0b565b91505092915050565b60008115159050919050565b610b6281610b4d565b82525050565b6000602082019050610b7d6000830184610b59565b92915050565b6000819050919050565b610b9681610b83565b82525050565b6000602082019050610bb16000830184610b8d565b92915050565b600080fd5b600060a08284031215610bd257610bd1610bb7565b5b81905092915050565b600080fd5b600080fd5b600080fd5b60008083601f840112610c0057610bff610bdb565b5b8235905067ffffffffffffffff811115610c1d57610c1c610be0565b5b602083019150836001820283011115610c3957610c38610be5565b5b9250929050565b600080600060408486031215610c5957610c58610ab8565b5b600084013567ffffffffffffffff811115610c7757610c76610abd565b5b610c8386828701610bbc565b935050602084013567ffffffffffffffff811115610ca457610ca3610abd565b5b610cb086828701610bea565b92509250509250925092565b610cc581610ae2565b82525050565b6000602082019050610ce06000830184610cbc565b92915050565b600082825260208201905092915050565b7f4f6e6c79206f776e65722063616e2072656d6f76652072656c61796572730000600082015250565b6000610d2d601e83610ce6565b9150610d3882610cf7565b602082019050919050565b60006020820190508181036000830152610d5c81610d20565b9050919050565b7f4e6f7420616e20617574686f72697a65642072656c6179657200000000000000600082015250565b6000610d99601983610ce6565b9150610da482610d63565b602082019050919050565b60006020820190508181036000830152610dc881610d8c565b9050919050565b600080fd5b600080fd5b600080fd5b60008083356001602003843603038112610dfb57610dfa610dcf565b5b80840192508235915067ffffffffffffffff821115610e1d57610e1c610dd4565b5b602083019250600182023603831315610e3957610e38610dd9565b5b509250929050565b600082825260208201905092915050565b82818337600083830152505050565b6000601f19601f8301169050919050565b6000610e7e8385610e41565b9350610e8b838584610e52565b610e9483610e61565b840190509392505050565b600060a082019050610eb46000830189610cbc565b610ec16020830188610cbc565b610ece6040830187610b8d565b610edb6060830186610b8d565b8181036080830152610eee818486610e72565b9050979650505050505050565b600081905092915050565b7f19457468657265756d205369676e6564204d6573736167653a0a333200000000600082015250565b6000610f3c601c83610efb565b9150610f4782610f06565b601c82019050919050565b6000819050919050565b6000819050919050565b610f77610f7282610f52565b610f5c565b82525050565b6000610f8882610f2f565b9150610f948284610f66565b60208201915081905092915050565b7f496e76616c6964207369676e6174757265000000000000000000000000000000600082015250565b6000610fd9601183610ce6565b9150610fe482610fa3565b602082019050919050565b6000602082019050818103600083015261100881610fcc565b9050919050565b7f496e76616c6964206e6f6e636500000000000000000000000000000000000000600082015250565b6000611045600d83610ce6565b91506110508261100f565b602082019050919050565b6000602082019050818103600083015261107481611038565b9050919050565b7f4e487b7100000000000000000000000000000000000000000000000000000000600052601160045260246000fd5b60006110b582610b83565b91507fffffffffffffffffffffffffffffffffffffffffffffffffffffffffffffffff82036110e7576110e661107b565b5b600182019050919050565b600081905092915050565b600061110983856110f2565b9350611116838584610e52565b82840190509392505050565b600061112f8284866110fd565b91508190509392505050565b7f5472616e73616374696f6e206661696c65640000000000000000000000000000600082015250565b6000611171601283610ce6565b915061117c8261113b565b602082019050919050565b600060208201905081810360008301526111a081611164565b9050919050565b60006040820190506111bc6000830186610b8d565b81810360208301526111cf818486610e72565b9050949350505050565b7f4f6e6c79206f776e65722063616e206164642072656c61796572730000000000600082015250565b600061120f601b83610ce6565b915061121a826111d9565b602082019050919050565b6000602082019050818103600083015261123e81611202565b9050919050565b7f4e487b7100000000000000000000000000000000000000000000000000000000600052602160045260246000fd5b61127d81610f52565b82525050565b60006020820190506112986000830184611274565b92915050565b600060ff82169050919050565b6112b48161129e565b82525050565b60006080820190506112cf6000830187611274565b6112dc60208301866112ab565b6112e96040830185611274565b6112f66060830184611274565b9594505050505056fea26469706673582212200aeb33bbef8f11b3f9e265a90babfc397ba02223174485127f97220e1250dbb764736f6c63430008140033",
  "linkReferences": {},
  "deployedLinkReferences": {}
}