{
  "_format": "hh-sol-artifact-1",
  "contractName": "GaslessForwarder",
  "sourceName": "contracts/GaslessForwarder.sol",
  "abi": [
    {
      "inputs": [],
      "stateMutability": "nonpayable",
      "type": "constructor"
    },
    {
      "inputs": [],
      "name": "ECDSAInvalidSignature",
      "type": "error"
    },
    {
      "inputs": [
        {
          "internalType": "uint256",
          "name": "length",
          "type": "uint256"
        }
      ],
      "name": "ECDSAInvalidSignatureLength",
      "type": "error"
    },
    {
      "inputs": [
        {
          "internalType": "bytes32",
          "name": "s",
          "type": "bytes32"
        }
      ],
      "name": "ECDSAInvalidSignatureS",
      "type": "error"
    },
    {
      "anonymous": false,
      "inputs": [
        {
          "indexed": true,
          "internalType": "address",
          "name": "from",
          "type": "address"
        },
        {
          "indexed": true,
          "internalType": "address",
          "name": "to",
          "type": "address"
        },
        {
          "indexed": false,
          "internalType": "uint256",
          "name": "value",
          "type": "uint256"
        },
        {
          "indexed": false,
          "internalType": "bytes",
          "name": "data",
          "type": "bytes"
        }
      ],
      "name": "TransactionForwarded",
      "type": "event"
    },
    {
      "inputs": [
        {
          "internalType": "address",
          "name": "_relayer",
          "type": "address"
        }
      ],
      "name": "addRelayer",
      "outputs": [],
      "stateMutability": "nonpayable",
      "type": "function"
    },
    {
      "inputs": [
        {
          "components": [
            {
              "internalType": "address",
              "name": "from",
              "type": "address"
            },
            {
              "internalType": "address",
              "name": "to",
              "type": "address"
            },
            {
              "internalType": "uint256",
              "name": "value",
              "type": "uint256"
            },
            {
              "internalType": "uint256",
              "name": "nonce",
              "type": "uint256"
            },
            {
              "internalType": "bytes",
              "name": "data",
              "type": "bytes"
            }
          ],
          "internalType": "struct GaslessForwarder.ForwardRequest",
          "name": "req",
          "type": "tuple"
        },
        {
          "internalType": "bytes",
          "name": "signature",
          "type": "bytes"
        }
      ],
      "name": "executeTransaction",
      "outputs": [],
      "stateMutability": "nonpayable",
      "type": "function"
    },
    {
      "inputs": [
        {
          "internalType": "address",
          "name": "",
          "type": "address"
        }
      ],
      "name": "nonces",
      "outputs": [
        {
          "internalType": "uint256",
          "name": "",
          "type": "uint256"
        }
      ],
      "stateMutability": "view",
      "type": "function"
    },
    {
      "inputs": [],
      "name": "owner",
      "outputs": [
        {
          "internalType": "address",
          "name": "",
          "type": "address"
        }
      ],
      "stateMutability": "view",
      "type": "function"
    },
    {
      "inputs": [
        {
          "internalType": "address",
          "name": "",
          "type": "address"
        }
      ],
      "name": "relayers",
      "outputs": [
        {
          "internalType": "bool",
          "name": "",
          "type": "bool"
        }
      ],
      "stateMutability": "view",
      "type": "function"
    },
    {
      "inputs": [
        {
          "internalType": "address",
          "name": "_relayer",
          "type": "address"
        }
      ],
      "name": "removeRelayer",
      "outputs": [],
      "stateMutability": "nonpayable",
      "type": "function"
    }
  ],
  "bytecode": "0x608060405234801561001057600080fd5b50336000806101000a81548173ffffffffffffffffffffffffffffffffffffffff021916908373ffffffffffffffffffffffffffffffffffffffff16021790555061133e806100606000396000f3fe608060405234801561001057600080fd5b50600436106100625760003560e01c80635300f8411461006757806360f0a5ac146100975780637ecebe00146100b3578063824f9dc5146100e35780638da5cb5b146100ff578063dd39f00d1461011d575b600080fd5b610081600480360381019061007c9190610b29565b610139565b60405161008e9190610b71565b60405180910390f35b6100b160048036038101906100ac9190610b29565b610159565b005b6100cd60048036038101906100c89190610b29565b610242565b6040516100da9190610ba5565b60405180910390f35b6100fd60048036038101906100f89190610c49565b61025a565b005b6101076106d5565b6040516101149190610cd4565b60405180910390f35b61013760048036038101906101329190610b29565b6106f9565b005b60016020528060005260406000206000915054906101000a900460ff1681565b60008054906101000a900473ffffffffffffffffffffffffffffffffffffffff1673ffffffffffffffffffffffffffffffffffffffff163373ffffffffffffffffffffffffffffffffffffffff16146101e7576040517f08c379a00000000000000000000000000000000000000000000000000000000081526004016101de90610d4c565b60405180910390fd5b6000600160008373ffffffffffffffffffffffffffffffffffffffff1673ffffffffffffffffffffffffffffffffffffffff16815260200190815260200160002060006101000a81548160ff02191690831515021790555050565b60026020528060005260406000206000915090505481565b600160003373ffffffffffffffffffffffffffffffffffffffff1673ffffffffffffffffffffffffffffffffffffffff16815260200190815260200160002060009054906101000a900460ff166102e6576040517f08c379a00000000000000000000000000000000000000000000000000000000081526004016102dd90610db8565b60405180910390fd5b60008360000160208101906102fb9190610b29565b84602001602081019061030e9190610b29565b856040013586606001358780608001906103289190610de7565b60405160200161033d96959493929190610ea8565b6040516020818303038152906040528051906020012090506000816040516020016103689190610f86565b60405160208183030381529060405280519060200120905060006103d985858080601f016020809104026020016040519081016040528093929190818152602001838380828437600081840152601f19601f82011690508083019250505050505050836107e190919063ffffffff16565b90508560000160208101906103ee9190610b29565b73ffffffffffffffffffffffffffffffffffffffff168173ffffffffffffffffffffffffffffffffffffffff161461045b576040517f08c379a000000000000000000000000000000000000000000000000000000000815260040161045290610ff8565b60405180910390fd5b8560600135600260008860000160208101906104779190610b29565b73ffffffffffffffffffffffffffffffffffffffff1673ffffffffffffffffffffffffffffffffffffffff16815260200190815260200160002054146104f2576040517f08c379a00000000000000000000000000000000000000000000000000000000081526004016104e990611064565b60405180910390fd5b600260008760000160208101906105099190610b29565b73ffffffffffffffffffffffffffffffffffffffff1673ffffffffffffffffffffffffffffffffffffffff1681526020019081526020016000206000815480929190610554906110b3565b9190505550600086602001602081019061056e9190610b29565b73ffffffffffffffffffffffffffffffffffffffff1687604001358880608001906105999190610de7565b6040516105a792919061112b565b60006040518083038185875af1925050503d80600081146105e4576040519150601f19603f3d011682016040523d82523d6000602084013e6105e9565b606091505b505090508061062d576040517f08c379a000000000000000000000000000000000000000000000000000000000815260040161062490611190565b60405180910390fd5b8660200160208101906106409190610b29565b73ffffffffffffffffffffffffffffffffffffffff168760000160208101906106699190610b29565b73ffffffffffffffffffffffffffffffffffffffff167fabc57338c8c17e63d416364c3363d688a4c8cdf40927ba31eed5482d2bdf0ccf89604001358a80608001906106b59190610de7565b6040516106c4939291906111b0565b60405180910390a350505050505050565b60008054906101000a900473ffffffffffffffffffffffffffffffffffffffff1681565b60008054906101000a900473ffffffffffffffffffffffffffffffffffffffff1673ffffffffffffffffffffffffffffffffffffffff163373ffffffffffffffffffffffffffffffffffffffff1614610787576040517f08c379a000000000000000000000000000000000000000000000000000000000815260040161077e9061122e565b60405180910390fd5b60018060008373ffffffffffffffffffffffffffffffffffffffff1673ffffffffffffffffffffffffffffffffffffffff16815260200190815260200160002060006101000a81548160ff02191690831515021790555050565b6000806000806107f1868661080d565b9250925092506108018282610869565b82935050505092915050565b600080600060418451036108525760008060006020870151925060408701519150606087015160001a9050610844888285856109cd565b955095509550505050610862565b60006002855160001b9250925092505b9250925092565b6000600381111561087d5761087c61124e565b5b8260038111156108905761088f61124e565b5b03156109c957600160038111156108aa576108a961124e565b5b8260038111156108bd576108bc61124e565b5b036108f4576040517ff645eedf00000000000000000000000000000000000000000000000000000000815260040160405180910390fd5b600260038111156109085761090761124e565b5b82600381111561091b5761091a61124e565b5b03610960578060001c6040517ffce698f70000000000000000000000000000000000000000000000000000000081526004016109579190610ba5565b60405180910390fd5b6003808111156109735761097261124e565b5b8260038111156109865761098561124e565b5b036109c857806040517fd78bce0c0000000000000000000000000000000000000000000000000000000081526004016109bf919061128c565b60405180910390fd5b5b5050565b60008060007f7fffffffffffffffffffffffffffffff5d576e7357a4501ddfe92f46681b20a08460001c1115610a0d576000600385925092509250610ab7565b600060018888888860405160008152602001604052604051610a3294939291906112c3565b6020604051602081039080840390855afa158015610a54573d6000803e3d6000fd5b505050602060405103519050600073ffffffffffffffffffffffffffffffffffffffff168173ffffffffffffffffffffffffffffffffffffffff1603610aa857600060016000801b93509350935050610ab7565b8060008060001b935093509350505b9450945094915050565b600080fd5b600080fd5b600073ffffffffffffffffffffffffffffffffffffffff82169050919050565b6000610af682610acb565b9050919050565b610b0681610aeb565b8114610b1157600080fd5b50565b600081359050610b2381610afd565b92915050565b600060208284031215610b3f57610b3e610ac1565b5b6000610b4d84828501610b14565b91505092915050565b60008115159050919050565b610b6b81610b56565b82525050565b6000602082019050610b866000830184610b62565b92915050565b6000819050919050565b610b9f81610b8c565b82525050565b6000602082019050610bba6000830184610b96565b92915050565b600080fd5b600060a08284031215610bdb57610bda610bc0565b5b81905092915050565b600080fd5b600080fd5b600080fd5b60008083601f840112610c0957610c08610be4565b5b8235905067ffffffffffffffff811115610c2657610c25610be9565b5b602083019150836001820283011115610c4257610c41610bee565b5b9250929050565b600080600060408486031215610c6257610c61610ac1565b5b600084013567ffffffffffffffff811115610c8057610c7f610ac6565b5b610c8c86828701610bc5565b935050602084013567ffffffffffffffff811115610cad57610cac610ac6565b5b610cb986828701610bf3565b92509250509250925092565b610cce81610aeb565b82525050565b6000602082019050610ce96000830184610cc5565b92915050565b600082825260208201905092915050565b7f4f6e6c79206f776e65722063616e2072656d6f76652072656c61796572730000600082015250565b6000610d36601e83610cef565b9150610d4182610d00565b602082019050919050565b60006020820190508181036000830152610d6581610d29565b9050919050565b7f4e6f7420616e20617574686f72697a65642072656c6179657200000000000000600082015250565b6000610da2601983610cef565b9150610dad82610d6c565b602082019050919050565b60006020820190508181036000830152610dd181610d95565b9050919050565b600080fd5b600080fd5b600080fd5b60008083356001602003843603038112610e0457610e03610dd8565b5b80840192508235915067ffffffffffffffff821115610e2657610e25610ddd565b5b602083019250600182023603831315610e4257610e41610de2565b5b509250929050565b600082825260208201905092915050565b82818337600083830152505050565b6000601f19601f8301169050919050565b6000610e878385610e4a565b9350610e94838584610e5b565b610e9d83610e6a565b840190509392505050565b600060a082019050610ebd6000830189610cc5565b610eca6020830188610cc5565b610ed76040830187610b96565b610ee46060830186610b96565b8181036080830152610ef7818486610e7b565b9050979650505050505050565b600081905092915050565b7f19457468657265756d205369676e6564204d6573736167653a0a333200000000600082015250565b6000610f45601c83610f04565b9150610f5082610f0f565b601c82019050919050565b6000819050919050565b6000819050919050565b610f80610f7b82610f5b565b610f65565b82525050565b6000610f9182610f38565b9150610f9d8284610f6f565b60208201915081905092915050565b7f496e76616c6964207369676e6174757265000000000000000000000000000000600082015250565b6000610fe2601183610cef565b9150610fed82610fac565b602082019050919050565b6000602082019050818103600083015261101181610fd5565b9050919050565b7f496e76616c6964206e6f6e636500000000000000000000000000000000000000600082015250565b600061104e600d83610cef565b915061105982611018565b602082019050919050565b6000602082019050818103600083015261107d81611041565b9050919050565b7f4e487b7100000000000000000000000000000000000000000000000000000000600052601160045260246000fd5b60006110be82610b8c565b91507fffffffffffffffffffffffffffffffffffffffffffffffffffffffffffffffff82036110f0576110ef611084565b5b600182019050919050565b600081905092915050565b600061111283856110fb565b935061111f838584610e5b565b82840190509392505050565b6000611138828486611106565b91508190509392505050565b7f5472616e73616374696f6e206661696c65640000000000000000000000000000600082015250565b600061117a601283610cef565b915061118582611144565b602082019050919050565b600060208201905081810360008301526111a98161116d565b9050919050565b60006040820190506111c56000830186610b96565b81810360208301526111d8818486610e7b565b9050949350505050565b7f4f6e6c79206f776e65722063616e206164642072656c61796572730000000000600082015250565b6000611218601b83610cef565b9150611223826111e2565b602082019050919050565b600060208201905081810360008301526112478161120b565b9050919050565b7f4e487b7100000000000000000000000000000000000000000000000000000000600052602160045260246000fd5b61128681610f5b565b82525050565b60006020820190506112a1600083018461127d565b92915050565b600060ff82169050919050565b6112bd816112a7565b82525050565b60006080820190506112d8600083018761127d565b6112e560208301866112b4565b6112f2604083018561127d565b6112ff606083018461127d565b9594505050505056fea2646970667358221220ac884bd0aa08e3cc63be9d678d82d0a87e7c2cc91e78ba2f6b0a53128796db9d64736f6c63430008140033",
  "linkReferences": {},
  "deployedLinkReferences": {}
}