{
  "_format": "hh-sol-artifact-1",
  "contractName": "StandardForwarder",
  "sourceName": "contracts/StandardForwarder.sol",
  "abi": [
    {
      "anonymous": false,
      "inputs": [
        {
          "indexed": true,
          "internalType": "address",
          "name": "sender",
          "type": "address"
        },
        {
          "indexed": true,
          "internalType": "address",
          "name": "recipient",
          "type": "address"
        },
        {
          "indexed": false,
          "internalType": "uint256",
          "name": "value",
          "type": "uint256"
        }
      ],
      "name": "Forwarded",
      "type": "event"
    },
    {
      "inputs": [
        {
          "internalType": "address[]",
          "name": "tokens",
          "type": "address[]"
        },
        {
          "internalType": "address[]",
          "name": "recipients",
          "type": "address[]"
        },
        {
          "internalType": "uint256[]",
          "name": "values",
          "type": "uint256[]"
        },
        {
          "internalType": "uint256[]",
          "name": "noncesBatch",
          "type": "uint256[]"
        }
      ],
      "name": "forwardBatch",
      "outputs": [],
      "stateMutability": "nonpayable",
      "type": "function"
    },
    {
      "inputs": [
        {
          "internalType": "address",
          "name": "user",
          "type": "address"
        }
      ],
      "name": "getNonce",
      "outputs": [
        {
          "internalType": "uint256",
          "name": "",
          "type": "uint256"
        }
      ],
      "stateMutability": "view",
      "type": "function"
    },
    {
      "inputs": [
        {
          "internalType": "address",
          "name": "",
          "type": "address"
        }
      ],
      "name": "nonces",
      "outputs": [
        {
          "internalType": "uint256",
          "name": "",
          "type": "uint256"
        }
      ],
      "stateMutability": "view",
      "type": "function"
    }
  ],
  "bytecode": "0x608060405234801561001057600080fd5b5061090c806100206000396000f3fe608060405234801561001057600080fd5b50600436106100415760003560e01c80632d0335ab146100465780637ecebe0014610076578063946f226f146100a6575b600080fd5b610060600480360381019061005b9190610497565b6100c2565b60405161006d91906104dd565b60405180910390f35b610090600480360381019061008b9190610497565b61010a565b60405161009d91906104dd565b60405180910390f35b6100c060048036038101906100bb91906105b3565b610122565b005b60008060008373ffffffffffffffffffffffffffffffffffffffff1673ffffffffffffffffffffffffffffffffffffffff168152602001908152602001600020549050919050565b60006020528060005260406000206000915090505481565b6000888890509050808787905014801561013e57508085859050145b801561014c57508083839050145b61018b576040517f08c379a0000000000000000000000000000000000000000000000000000000008152600401610182906106f9565b60405180910390fd5b60005b81811015610423578383828181106101a9576101a8610719565b5b905060200201356000803373ffffffffffffffffffffffffffffffffffffffff1673ffffffffffffffffffffffffffffffffffffffff168152602001908152602001600020541461022f576040517f08c379a000000000000000000000000000000000000000000000000000000000815260040161022690610794565b60405180910390fd5b6000803373ffffffffffffffffffffffffffffffffffffffff1673ffffffffffffffffffffffffffffffffffffffff168152602001908152602001600020600081548092919061027e906107e3565b919050555089898281811061029657610295610719565b5b90506020020160208101906102ab9190610497565b73ffffffffffffffffffffffffffffffffffffffff166323b872dd338a8a858181106102da576102d9610719565b5b90506020020160208101906102ef9190610497565b89898681811061030257610301610719565b5b905060200201356040518463ffffffff1660e01b81526004016103279392919061083a565b6020604051808303816000875af1158015610346573d6000803e3d6000fd5b505050506040513d601f19601f8201168201806040525081019061036a91906108a9565b5087878281811061037e5761037d610719565b5b90506020020160208101906103939190610497565b73ffffffffffffffffffffffffffffffffffffffff163373ffffffffffffffffffffffffffffffffffffffff167f0571d85fc9cce8d2ebf18e983becef6cc884e37503f377f9b6383d65850f96d28888858181106103f4576103f3610719565b5b9050602002013560405161040891906104dd565b60405180910390a3808061041b906107e3565b91505061018e565b50505050505050505050565b600080fd5b600080fd5b600073ffffffffffffffffffffffffffffffffffffffff82169050919050565b600061046482610439565b9050919050565b61047481610459565b811461047f57600080fd5b50565b6000813590506104918161046b565b92915050565b6000602082840312156104ad576104ac61042f565b5b60006104bb84828501610482565b91505092915050565b6000819050919050565b6104d7816104c4565b82525050565b60006020820190506104f260008301846104ce565b92915050565b600080fd5b600080fd5b600080fd5b60008083601f84011261051d5761051c6104f8565b5b8235905067ffffffffffffffff81111561053a576105396104fd565b5b60208301915083602082028301111561055657610555610502565b5b9250929050565b60008083601f840112610573576105726104f8565b5b8235905067ffffffffffffffff8111156105905761058f6104fd565b5b6020830191508360208202830111156105ac576105ab610502565b5b9250929050565b6000806000806000806000806080898b0312156105d3576105d261042f565b5b600089013567ffffffffffffffff8111156105f1576105f0610434565b5b6105fd8b828c01610507565b9850985050602089013567ffffffffffffffff8111156106205761061f610434565b5b61062c8b828c01610507565b9650965050604089013567ffffffffffffffff81111561064f5761064e610434565b5b61065b8b828c0161055d565b9450945050606089013567ffffffffffffffff81111561067e5761067d610434565b5b61068a8b828c0161055d565b92509250509295985092959890939650565b600082825260208201905092915050565b7f4172726179206c656e677468206d69736d617463680000000000000000000000600082015250565b60006106e360158361069c565b91506106ee826106ad565b602082019050919050565b60006020820190508181036000830152610712816106d6565b9050919050565b7f4e487b7100000000000000000000000000000000000000000000000000000000600052603260045260246000fd5b7f496e76616c6964206e6f6e636500000000000000000000000000000000000000600082015250565b600061077e600d8361069c565b915061078982610748565b602082019050919050565b600060208201905081810360008301526107ad81610771565b9050919050565b7f4e487b7100000000000000000000000000000000000000000000000000000000600052601160045260246000fd5b60006107ee826104c4565b91507fffffffffffffffffffffffffffffffffffffffffffffffffffffffffffffffff82036108205761081f6107b4565b5b600182019050919050565b61083481610459565b82525050565b600060608201905061084f600083018661082b565b61085c602083018561082b565b61086960408301846104ce565b949350505050565b60008115159050919050565b61088681610871565b811461089157600080fd5b50565b6000815190506108a38161087d565b92915050565b6000602082840312156108bf576108be61042f565b5b60006108cd84828501610894565b9150509291505056fea2646970667358221220e0539a0e4f9df86e3c1d933840a1ac4f4b777960959456276d865793221d737164736f6c63430008140033",
  "linkReferences": {},
  "deployedLinkReferences": {}
}