{
  "_format": "hh-sol-artifact-1",
  "contractName": "OptimizedForwarder",
  "sourceName": "contracts/OptimizedForwarder.sol",
  "abi": [
    {
      "anonymous": false,
      "inputs": [
        {
          "indexed": true,
          "internalType": "address",
          "name": "sender",
          "type": "address"
        },
        {
          "indexed": true,
          "internalType": "address",
          "name": "recipient",
          "type": "address"
        },
        {
          "indexed": false,
          "internalType": "uint256",
          "name": "value",
          "type": "uint256"
        }
      ],
      "name": "Forwarded",
      "type": "event"
    },
    {
      "inputs": [
        {
          "internalType": "address[]",
          "name": "tokens",
          "type": "address[]"
        },
        {
          "internalType": "address[]",
          "name": "recipients",
          "type": "address[]"
        },
        {
          "internalType": "uint256[]",
          "name": "values",
          "type": "uint256[]"
        },
        {
          "internalType": "uint256[]",
          "name": "noncesBatch",
          "type": "uint256[]"
        }
      ],
      "name": "forwardBatch",
      "outputs": [],
      "stateMutability": "nonpayable",
      "type": "function"
    },
    {
      "inputs": [
        {
          "internalType": "address",
          "name": "user",
          "type": "address"
        }
      ],
      "name": "getNonce",
      "outputs": [
        {
          "internalType": "uint256",
          "name": "",
          "type": "uint256"
        }
      ],
      "stateMutability": "view",
      "type": "function"
    }
  ],
  "bytecode": "0x608060405234801561001057600080fd5b506108b3806100206000396000f3fe608060405234801561001057600080fd5b50600436106100365760003560e01c80632d0335ab1461003b578063946f226f1461006b575b600080fd5b6100556004803603810190610050919061043e565b610087565b6040516100629190610484565b60405180910390f35b6100856004803603810190610080919061055a565b6100cf565b005b60008060008373ffffffffffffffffffffffffffffffffffffffff1673ffffffffffffffffffffffffffffffffffffffff168152602001908152602001600020549050919050565b600088889050905080878790501480156100eb57508085859050145b80156100f957508083839050145b610138576040517f08c379a000000000000000000000000000000000000000000000000000000000815260040161012f906106a0565b60405180910390fd5b60005b818110156103ca57838382818110610156576101556106c0565b5b905060200201356000803373ffffffffffffffffffffffffffffffffffffffff1673ffffffffffffffffffffffffffffffffffffffff16815260200190815260200160002054146101dc576040517f08c379a00000000000000000000000000000000000000000000000000000000081526004016101d39061073b565b60405180910390fd5b6000803373ffffffffffffffffffffffffffffffffffffffff1673ffffffffffffffffffffffffffffffffffffffff1681526020019081526020016000206000815480929190600101919050555089898281811061023d5761023c6106c0565b5b9050602002016020810190610252919061043e565b73ffffffffffffffffffffffffffffffffffffffff166323b872dd338a8a85818110610281576102806106c0565b5b9050602002016020810190610296919061043e565b8989868181106102a9576102a86106c0565b5b905060200201356040518463ffffffff1660e01b81526004016102ce9392919061076a565b6020604051808303816000875af11580156102ed573d6000803e3d6000fd5b505050506040513d601f19601f8201168201806040525081019061031191906107d9565b50878782818110610325576103246106c0565b5b905060200201602081019061033a919061043e565b73ffffffffffffffffffffffffffffffffffffffff163373ffffffffffffffffffffffffffffffffffffffff167f0571d85fc9cce8d2ebf18e983becef6cc884e37503f377f9b6383d65850f96d288888581811061039b5761039a6106c0565b5b905060200201356040516103af9190610484565b60405180910390a380806103c290610835565b91505061013b565b50505050505050505050565b600080fd5b600080fd5b600073ffffffffffffffffffffffffffffffffffffffff82169050919050565b600061040b826103e0565b9050919050565b61041b81610400565b811461042657600080fd5b50565b60008135905061043881610412565b92915050565b600060208284031215610454576104536103d6565b5b600061046284828501610429565b91505092915050565b6000819050919050565b61047e8161046b565b82525050565b60006020820190506104996000830184610475565b92915050565b600080fd5b600080fd5b600080fd5b60008083601f8401126104c4576104c361049f565b5b8235905067ffffffffffffffff8111156104e1576104e06104a4565b5b6020830191508360208202830111156104fd576104fc6104a9565b5b9250929050565b60008083601f84011261051a5761051961049f565b5b8235905067ffffffffffffffff811115610537576105366104a4565b5b602083019150836020820283011115610553576105526104a9565b5b9250929050565b6000806000806000806000806080898b03121561057a576105796103d6565b5b600089013567ffffffffffffffff811115610598576105976103db565b5b6105a48b828c016104ae565b9850985050602089013567ffffffffffffffff8111156105c7576105c66103db565b5b6105d38b828c016104ae565b9650965050604089013567ffffffffffffffff8111156105f6576105f56103db565b5b6106028b828c01610504565b9450945050606089013567ffffffffffffffff811115610625576106246103db565b5b6106318b828c01610504565b92509250509295985092959890939650565b600082825260208201905092915050565b7f4172726179206c656e677468206d69736d617463680000000000000000000000600082015250565b600061068a601583610643565b915061069582610654565b602082019050919050565b600060208201905081810360008301526106b98161067d565b9050919050565b7f4e487b7100000000000000000000000000000000000000000000000000000000600052603260045260246000fd5b7f496e76616c6964206e6f6e636500000000000000000000000000000000000000600082015250565b6000610725600d83610643565b9150610730826106ef565b602082019050919050565b6000602082019050818103600083015261075481610718565b9050919050565b61076481610400565b82525050565b600060608201905061077f600083018661075b565b61078c602083018561075b565b6107996040830184610475565b949350505050565b60008115159050919050565b6107b6816107a1565b81146107c157600080fd5b50565b6000815190506107d3816107ad565b92915050565b6000602082840312156107ef576107ee6103d6565b5b60006107fd848285016107c4565b91505092915050565b7f4e487b7100000000000000000000000000000000000000000000000000000000600052601160045260246000fd5b60006108408261046b565b91507fffffffffffffffffffffffffffffffffffffffffffffffffffffffffffffffff820361087257610871610806565b5b60018201905091905056fea2646970667358221220c2c061dba6bdfbd45ce10924e4a9ce0441a3741b3711c0202c646672ae04ad3264736f6c63430008140033",
  "linkReferences": {},
  "deployedLinkReferences": {}
}